:020000040000FA
:020000000528D1
:06000A00850183160313BB
:1000100000308600860106309F000F308500831275
:10002000A501A60105080F3982071A281F282C28C8
:100030003928512800308600A500A6001228C030BB
:100040008600692060308600692030308600692093
:100050009030860069201228903086006920303068
:1000600086006920603086006920C03086006920E3
:1000700012280A30250203191228C0308600692090
:10008000603086006920303086006920903086001C
:100090006920A60AFF302602031D1228A50AA60120
:1000A0001228143025020319122890308600692086
:1000B000303086006920603086006920C0308600BC
:1000C0006920A60AFF302602031D1228A50AA601F0
:1000D00012280130A1005030A2006030A300A30B11
:0C00E0006F28A20B6D28A10B6B280800F4
:00000001FF
