:020000040000FA
:020000000528D1
:06000A00850183160313BB
:1000100000308600860106309F000F308500831275
:10002000A501A60105080F3982071A281F282C28C8
:1000300039284B2800308600A500A6001228C030C1
:1000400086005D20603086005D20303086005D20B7
:10005000903086005D201228903086005D20303080
:1000600086005D20603086005D20C03086005D2007
:1000700012280530250203191228A50AC03086006F
:100080005D20603086005D20303086005D2090303D
:1000900086005D2012280A30260203191228A60ABB
:1000A000903086005D20303086005D206030860014
:1000B0005D20C03086005D2012288030A1005030C5
:1000C000A2006030A300A30B6328A20B6128A10B40
:0400D0005F2808009D
:00000001FF
