:020000040000FA
:020000000528D1
:06000A00850183160313BB
:1000100000308700870106309F000F308500831273
:10002000A501A6010508043C03191F280508023C88
:1000300003194C280508013C0319792812280130BE
:100040008700A620A62000308700A620A620A62094
:10005000A620A620A620A620A620A620A620A62070
:10006000A620A620A620A620A620A620A620A62060
:10007000A620A620A620A620A620A620A620A62050
:10008000A620A620A620A620A620A620A620A62040
:10009000A620A620A620122801308700A620A62090
:1000A000A62000308700A620A620A620A620A620F5
:1000B000A620A620A620A620A620A620A620A62010
:1000C000A620A620A620A620A620A620A620A62000
:1000D000A620A620A620A620A620A620A620A620F0
:1000E000A620A620A620A620A620A620A620A620E0
:1000F000122801308700A620A620A620A6200030C6
:100100008700A620A620A620A620A620A620A620FE
:10011000A620A620A620A620A620A620A620A620AF
:10012000A620A620A620A620A620A620A620A6209F
:10013000A620A620A620A620A620A620A620A6208F
:10014000A620A620A620A620A62012280130A100C5
:100150002030A2001930A300A30BAC28A20BAA28C0
:06016000A10BA828080015
:00000001FF
