:020000040000FA
:020000000528D1
:06000A00850183160313BB
:10001000860106309F00073085008312860105089F
:10002000820717281A281D2825282D283C2800304B
:1000300086000F28FF3086000F28013086004220FE
:10004000860D4220861F20280F28803086004220FF
:10005000860C4220061C28280F288030860042206B
:10006000860C4220061C3028013086004220860D76
:100070004220861F37280F2886014220FF30860045
:1000800042200F289030A1006030A2006030A30011
:0E009000A30B4828A20B4628A10B4428080009
:00000001FF
